{
  "address": "0x58F1cBFEE5d40C004771d43D0ab78fd0579E3C07",
  "abi": [
    {
      "inputs": [
        {
          "internalType": "string",
          "name": "_name",
          "type": "string"
        },
        {
          "internalType": "string",
          "name": "_symbol",
          "type": "string"
        },
        {
          "internalType": "uint256",
          "name": "initialSupply",
          "type": "uint256"
        }
      ],
      "stateMutability": "nonpayable",
      "type": "constructor"
    },
    {
      "anonymous": false,
      "inputs": [
        {
          "indexed": true,
          "internalType": "address",
          "name": "owner",
          "type": "address"
        },
        {
          "indexed": true,
          "internalType": "address",
          "name": "spender",
          "type": "address"
        },
        {
          "indexed": false,
          "internalType": "uint256",
          "name": "value",
          "type": "uint256"
        }
      ],
      "name": "Approval",
      "type": "event"
    },
    {
      "anonymous": false,
      "inputs": [
        {
          "indexed": true,
          "internalType": "bytes32",
          "name": "role",
          "type": "bytes32"
        },
        {
          "indexed": true,
          "internalType": "bytes32",
          "name": "previousAdminRole",
          "type": "bytes32"
        },
        {
          "indexed": true,
          "internalType": "bytes32",
          "name": "newAdminRole",
          "type": "bytes32"
        }
      ],
      "name": "RoleAdminChanged",
      "type": "event"
    },
    {
      "anonymous": false,
      "inputs": [
        {
          "indexed": true,
          "internalType": "bytes32",
          "name": "role",
          "type": "bytes32"
        },
        {
          "indexed": true,
          "internalType": "address",
          "name": "account",
          "type": "address"
        },
        {
          "indexed": true,
          "internalType": "address",
          "name": "sender",
          "type": "address"
        }
      ],
      "name": "RoleGranted",
      "type": "event"
    },
    {
      "anonymous": false,
      "inputs": [
        {
          "indexed": true,
          "internalType": "bytes32",
          "name": "role",
          "type": "bytes32"
        },
        {
          "indexed": true,
          "internalType": "address",
          "name": "account",
          "type": "address"
        },
        {
          "indexed": true,
          "internalType": "address",
          "name": "sender",
          "type": "address"
        }
      ],
      "name": "RoleRevoked",
      "type": "event"
    },
    {
      "anonymous": false,
      "inputs": [
        {
          "indexed": true,
          "internalType": "address",
          "name": "from",
          "type": "address"
        },
        {
          "indexed": true,
          "internalType": "address",
          "name": "to",
          "type": "address"
        },
        {
          "indexed": false,
          "internalType": "uint256",
          "name": "value",
          "type": "uint256"
        }
      ],
      "name": "Transfer",
      "type": "event"
    },
    {
      "inputs": [],
      "name": "BURNER_ROLE",
      "outputs": [
        {
          "internalType": "bytes32",
          "name": "",
          "type": "bytes32"
        }
      ],
      "stateMutability": "view",
      "type": "function"
    },
    {
      "inputs": [],
      "name": "DEFAULT_ADMIN_ROLE",
      "outputs": [
        {
          "internalType": "bytes32",
          "name": "",
          "type": "bytes32"
        }
      ],
      "stateMutability": "view",
      "type": "function"
    },
    {
      "inputs": [],
      "name": "MINTER_ROLE",
      "outputs": [
        {
          "internalType": "bytes32",
          "name": "",
          "type": "bytes32"
        }
      ],
      "stateMutability": "view",
      "type": "function"
    },
    {
      "inputs": [
        {
          "internalType": "address",
          "name": "owner",
          "type": "address"
        },
        {
          "internalType": "address",
          "name": "spender",
          "type": "address"
        }
      ],
      "name": "allowance",
      "outputs": [
        {
          "internalType": "uint256",
          "name": "",
          "type": "uint256"
        }
      ],
      "stateMutability": "view",
      "type": "function"
    },
    {
      "inputs": [
        {
          "internalType": "address",
          "name": "spender",
          "type": "address"
        },
        {
          "internalType": "uint256",
          "name": "amount",
          "type": "uint256"
        }
      ],
      "name": "approve",
      "outputs": [
        {
          "internalType": "bool",
          "name": "",
          "type": "bool"
        }
      ],
      "stateMutability": "nonpayable",
      "type": "function"
    },
    {
      "inputs": [
        {
          "internalType": "address",
          "name": "account",
          "type": "address"
        }
      ],
      "name": "balanceOf",
      "outputs": [
        {
          "internalType": "uint256",
          "name": "",
          "type": "uint256"
        }
      ],
      "stateMutability": "view",
      "type": "function"
    },
    {
      "inputs": [
        {
          "internalType": "uint256",
          "name": "amount",
          "type": "uint256"
        }
      ],
      "name": "burn",
      "outputs": [],
      "stateMutability": "nonpayable",
      "type": "function"
    },
    {
      "inputs": [
        {
          "internalType": "address",
          "name": "from",
          "type": "address"
        },
        {
          "internalType": "uint256",
          "name": "amount",
          "type": "uint256"
        }
      ],
      "name": "burn",
      "outputs": [],
      "stateMutability": "nonpayable",
      "type": "function"
    },
    {
      "inputs": [
        {
          "internalType": "address",
          "name": "account",
          "type": "address"
        },
        {
          "internalType": "uint256",
          "name": "amount",
          "type": "uint256"
        }
      ],
      "name": "burnFrom",
      "outputs": [],
      "stateMutability": "nonpayable",
      "type": "function"
    },
    {
      "inputs": [],
      "name": "decimals",
      "outputs": [
        {
          "internalType": "uint8",
          "name": "",
          "type": "uint8"
        }
      ],
      "stateMutability": "view",
      "type": "function"
    },
    {
      "inputs": [
        {
          "internalType": "address",
          "name": "spender",
          "type": "address"
        },
        {
          "internalType": "uint256",
          "name": "subtractedValue",
          "type": "uint256"
        }
      ],
      "name": "decreaseAllowance",
      "outputs": [
        {
          "internalType": "bool",
          "name": "",
          "type": "bool"
        }
      ],
      "stateMutability": "nonpayable",
      "type": "function"
    },
    {
      "inputs": [
        {
          "internalType": "bytes32",
          "name": "role",
          "type": "bytes32"
        }
      ],
      "name": "getRoleAdmin",
      "outputs": [
        {
          "internalType": "bytes32",
          "name": "",
          "type": "bytes32"
        }
      ],
      "stateMutability": "view",
      "type": "function"
    },
    {
      "inputs": [
        {
          "internalType": "bytes32",
          "name": "role",
          "type": "bytes32"
        },
        {
          "internalType": "address",
          "name": "account",
          "type": "address"
        }
      ],
      "name": "grantRole",
      "outputs": [],
      "stateMutability": "nonpayable",
      "type": "function"
    },
    {
      "inputs": [
        {
          "internalType": "bytes32",
          "name": "role",
          "type": "bytes32"
        },
        {
          "internalType": "address",
          "name": "account",
          "type": "address"
        }
      ],
      "name": "hasRole",
      "outputs": [
        {
          "internalType": "bool",
          "name": "",
          "type": "bool"
        }
      ],
      "stateMutability": "view",
      "type": "function"
    },
    {
      "inputs": [
        {
          "internalType": "address",
          "name": "spender",
          "type": "address"
        },
        {
          "internalType": "uint256",
          "name": "addedValue",
          "type": "uint256"
        }
      ],
      "name": "increaseAllowance",
      "outputs": [
        {
          "internalType": "bool",
          "name": "",
          "type": "bool"
        }
      ],
      "stateMutability": "nonpayable",
      "type": "function"
    },
    {
      "inputs": [
        {
          "internalType": "address",
          "name": "to",
          "type": "address"
        },
        {
          "internalType": "uint256",
          "name": "amount",
          "type": "uint256"
        }
      ],
      "name": "mint",
      "outputs": [],
      "stateMutability": "nonpayable",
      "type": "function"
    },
    {
      "inputs": [],
      "name": "name",
      "outputs": [
        {
          "internalType": "string",
          "name": "",
          "type": "string"
        }
      ],
      "stateMutability": "view",
      "type": "function"
    },
    {
      "inputs": [
        {
          "internalType": "bytes32",
          "name": "role",
          "type": "bytes32"
        },
        {
          "internalType": "address",
          "name": "account",
          "type": "address"
        }
      ],
      "name": "renounceRole",
      "outputs": [],
      "stateMutability": "nonpayable",
      "type": "function"
    },
    {
      "inputs": [
        {
          "internalType": "bytes32",
          "name": "role",
          "type": "bytes32"
        },
        {
          "internalType": "address",
          "name": "account",
          "type": "address"
        }
      ],
      "name": "revokeRole",
      "outputs": [],
      "stateMutability": "nonpayable",
      "type": "function"
    },
    {
      "inputs": [
        {
          "internalType": "bytes4",
          "name": "interfaceId",
          "type": "bytes4"
        }
      ],
      "name": "supportsInterface",
      "outputs": [
        {
          "internalType": "bool",
          "name": "",
          "type": "bool"
        }
      ],
      "stateMutability": "view",
      "type": "function"
    },
    {
      "inputs": [],
      "name": "symbol",
      "outputs": [
        {
          "internalType": "string",
          "name": "",
          "type": "string"
        }
      ],
      "stateMutability": "view",
      "type": "function"
    },
    {
      "inputs": [],
      "name": "totalSupply",
      "outputs": [
        {
          "internalType": "uint256",
          "name": "",
          "type": "uint256"
        }
      ],
      "stateMutability": "view",
      "type": "function"
    },
    {
      "inputs": [
        {
          "internalType": "address",
          "name": "to",
          "type": "address"
        },
        {
          "internalType": "uint256",
          "name": "amount",
          "type": "uint256"
        }
      ],
      "name": "transfer",
      "outputs": [
        {
          "internalType": "bool",
          "name": "",
          "type": "bool"
        }
      ],
      "stateMutability": "nonpayable",
      "type": "function"
    },
    {
      "inputs": [
        {
          "internalType": "address",
          "name": "from",
          "type": "address"
        },
        {
          "internalType": "address",
          "name": "to",
          "type": "address"
        },
        {
          "internalType": "uint256",
          "name": "amount",
          "type": "uint256"
        }
      ],
      "name": "transferFrom",
      "outputs": [
        {
          "internalType": "bool",
          "name": "",
          "type": "bool"
        }
      ],
      "stateMutability": "nonpayable",
      "type": "function"
    }
  ],
  "transactionHash": "0x7bcd5f0010616910e1c46c6a5173636b1ed0ec1c7d4c865a6b2d048fd434c3ca",
  "args": [
    "TEST TOKEN",
    "TEST",
    "100000000000000000000000000000"
  ],
  "numDeployments": 1,
  "solcInputHash": "2433703ef317c0b83c453c9ba3b2b36e",
  "bytecode": "0x60806040523480156200001157600080fd5b5060405162001964380380620019648339810160408190526200003491620003e5565b8251839083906200004d90600390602085019062000294565b5080516200006390600490602084019062000294565b505050620000783382620000e660201b60201c565b62000085600033620001c8565b620000b17f9f2df0fed2c77648de5860a4cc508cd0818c85b8b8a1ab4ceeef8d981c8956a633620001c8565b620000dd7f3c11d16cbaffd01df69ce1c404f6340ee057498f5f00246190ea54220576a84833620001c8565b5050506200050d565b6001600160a01b038216620001185760405162461bcd60e51b81526004016200010f9062000455565b60405180910390fd5b6200012660008383620001d4565b80600260008282546200013a919062000495565b90915550506001600160a01b038216600090815260208190526040812080548392906200016990849062000495565b90915550506040516001600160a01b038316906000907fddf252ad1be2c89b69c2b068fc378daa952ba7f163c4a11628f55a4df523b3ef90620001ae9085906200048c565b60405180910390a3620001c460008383620001d4565b5050565b620001c48282620001d9565b505050565b620001e5828262000265565b620001c45760008281526005602090815260408083206001600160a01b03851684529091529020805460ff191660011790556200022162000290565b6001600160a01b0316816001600160a01b0316837f2f8788117e7eff1d82e926ec794901d17c78024a50270940304540a733656f0d60405160405180910390a45050565b60009182526005602090815260408084206001600160a01b0393909316845291905290205460ff1690565b3390565b828054620002a290620004ba565b90600052602060002090601f016020900481019282620002c6576000855562000311565b82601f10620002e157805160ff191683800117855562000311565b8280016001018555821562000311579182015b8281111562000311578251825591602001919060010190620002f4565b506200031f92915062000323565b5090565b5b808211156200031f576000815560010162000324565b600082601f8301126200034b578081fd5b81516001600160401b0380821115620003685762000368620004f7565b6040516020601f8401601f1916820181018381118382101715620003905762000390620004f7565b6040528382528584018101871015620003a7578485fd5b8492505b83831015620003ca5785830181015182840182015291820191620003ab565b83831115620003db57848185840101525b5095945050505050565b600080600060608486031215620003fa578283fd5b83516001600160401b038082111562000411578485fd5b6200041f878388016200033a565b9450602086015191508082111562000435578384fd5b5062000444868287016200033a565b925050604084015190509250925092565b6020808252601f908201527f45524332303a206d696e7420746f20746865207a65726f206164647265737300604082015260600190565b90815260200190565b60008219821115620004b557634e487b7160e01b81526011600452602481fd5b500190565b600281046001821680620004cf57607f821691505b60208210811415620004f157634e487b7160e01b600052602260045260246000fd5b50919050565b634e487b7160e01b600052604160045260246000fd5b611447806200051d6000396000f3fe608060405234801561001057600080fd5b50600436106101585760003560e01c806342966c68116100c3578063a217fddf1161007c578063a217fddf146102bb578063a457c2d7146102c3578063a9059cbb146102d6578063d5391393146102e9578063d547741f146102f1578063dd62ed3e1461030457610158565b806342966c681461025457806370a082311461026757806379cc67901461027a57806391d148541461028d57806395d89b41146102a05780639dc29fac146102a857610158565b8063282c51f311610115578063282c51f3146101e95780632f2ff15d146101f1578063313ce5671461020657806336568abe1461021b578063395093511461022e57806340c10f191461024157610158565b806301ffc9a71461015d57806306fdde0314610186578063095ea7b31461019b57806318160ddd146101ae57806323b872dd146101c3578063248a9ca3146101d6575b600080fd5b61017061016b366004610f2f565b610317565b60405161017d9190610fcc565b60405180910390f35b61018e610344565b60405161017d9190610fe0565b6101706101a9366004610ecc565b6103d6565b6101b66103f8565b60405161017d9190610fd7565b6101706101d1366004610e91565b6103fe565b6101b66101e4366004610ef5565b61042c565b6101b6610441565b6102046101ff366004610f0d565b610465565b005b61020e61048e565b60405161017d9190611321565b610204610229366004610f0d565b610493565b61017061023c366004610ecc565b6104e2565b61020461024f366004610ecc565b61052e565b610204610262366004610ef5565b610565565b6101b6610275366004610e45565b610579565b610204610288366004610ecc565b610594565b61017061029b366004610f0d565b6105b0565b61018e6105db565b6102046102b6366004610ecc565b6105ea565b6101b6610621565b6101706102d1366004610ecc565b610626565b6101706102e4366004610ecc565b610687565b6101b661069f565b6102046102ff366004610f0d565b6106c3565b6101b6610312366004610e5f565b6106e2565b60006001600160e01b03198216637965db0b60e01b148061033c575061033c8261070d565b90505b919050565b606060038054610353906113c0565b80601f016020809104026020016040519081016040528092919081815260200182805461037f906113c0565b80156103cc5780601f106103a1576101008083540402835291602001916103cc565b820191906000526020600020905b8154815290600101906020018083116103af57829003601f168201915b5050505050905090565b6000806103e1610726565b90506103ee81858561072a565b5060019392505050565b60025490565b600080610409610726565b90506104168582856107de565b610421858585610828565b506001949350505050565b60009081526005602052604090206001015490565b7f3c11d16cbaffd01df69ce1c404f6340ee057498f5f00246190ea54220576a84881565b61046e8261042c565b61047f8161047a610726565b61094c565b61048983836109b0565b505050565b601290565b61049b610726565b6001600160a01b0316816001600160a01b0316146104d45760405162461bcd60e51b81526004016104cb9061129b565b60405180910390fd5b6104de8282610a37565b5050565b6000806104ed610726565b6001600160a01b038082166000908152600160209081526040808320938916835292905220549091506103ee908290869061052990879061132f565b61072a565b7f9f2df0fed2c77648de5860a4cc508cd0818c85b8b8a1ab4ceeef8d981c8956a661055b8161047a610726565b6104898383610abc565b610576610570610726565b82610b84565b50565b6001600160a01b031660009081526020819052604090205490565b6105a6826105a0610726565b836107de565b6104de8282610b84565b60009182526005602090815260408084206001600160a01b0393909316845291905290205460ff1690565b606060048054610353906113c0565b7f3c11d16cbaffd01df69ce1c404f6340ee057498f5f00246190ea54220576a8486106178161047a610726565b6104898383610b84565b600081565b600080610631610726565b6001600160a01b038082166000908152600160209081526040808320938916835292905220549091508381101561067a5760405162461bcd60e51b81526004016104cb90611256565b610421828686840361072a565b600080610692610726565b90506103ee818585610828565b7f9f2df0fed2c77648de5860a4cc508cd0818c85b8b8a1ab4ceeef8d981c8956a681565b6106cc8261042c565b6106d88161047a610726565b6104898383610a37565b6001600160a01b03918216600090815260016020908152604080832093909416825291909152205490565b6001600160e01b031981166301ffc9a760e01b14919050565b3390565b6001600160a01b0383166107505760405162461bcd60e51b81526004016104cb90611212565b6001600160a01b0382166107765760405162461bcd60e51b81526004016104cb906110cd565b6001600160a01b0380841660008181526001602090815260408083209487168084529490915290819020849055517f8c5be1e5ebec7d5bd14f71427d1e84f3dd0314c0f7b2291e5b200ac8c7c3b925906107d1908590610fd7565b60405180910390a3505050565b60006107ea84846106e2565b9050600019811461082257818110156108155760405162461bcd60e51b81526004016104cb9061110f565b610822848484840361072a565b50505050565b6001600160a01b03831661084e5760405162461bcd60e51b81526004016104cb906111cd565b6001600160a01b0382166108745760405162461bcd60e51b81526004016104cb90611048565b61087f838383610489565b6001600160a01b038316600090815260208190526040902054818110156108b85760405162461bcd60e51b81526004016104cb90611146565b6001600160a01b038085166000908152602081905260408082208585039055918516815290812080548492906108ef90849061132f565b92505081905550826001600160a01b0316846001600160a01b03167fddf252ad1be2c89b69c2b068fc378daa952ba7f163c4a11628f55a4df523b3ef846040516109399190610fd7565b60405180910390a3610822848484610489565b61095682826105b0565b6104de5761096e816001600160a01b03166014610c75565b610979836020610c75565b60405160200161098a929190610f57565b60408051601f198184030181529082905262461bcd60e51b82526104cb91600401610fe0565b6109ba82826105b0565b6104de5760008281526005602090815260408083206001600160a01b03851684529091529020805460ff191660011790556109f3610726565b6001600160a01b0316816001600160a01b0316837f2f8788117e7eff1d82e926ec794901d17c78024a50270940304540a733656f0d60405160405180910390a45050565b610a4182826105b0565b156104de5760008281526005602090815260408083206001600160a01b03851684529091529020805460ff19169055610a78610726565b6001600160a01b0316816001600160a01b0316837ff6391f5c32d9c69d2a47ea670b442974b53935d1edc7fd64eb21e047a839171b60405160405180910390a45050565b6001600160a01b038216610ae25760405162461bcd60e51b81526004016104cb906112ea565b610aee60008383610489565b8060026000828254610b00919061132f565b90915550506001600160a01b03821660009081526020819052604081208054839290610b2d90849061132f565b90915550506040516001600160a01b038316906000907fddf252ad1be2c89b69c2b068fc378daa952ba7f163c4a11628f55a4df523b3ef90610b70908590610fd7565b60405180910390a36104de60008383610489565b6001600160a01b038216610baa5760405162461bcd60e51b81526004016104cb9061118c565b610bb682600083610489565b6001600160a01b03821660009081526020819052604090205481811015610bef5760405162461bcd60e51b81526004016104cb9061108b565b6001600160a01b0383166000908152602081905260408120838303905560028054849290610c1e908490611366565b90915550506040516000906001600160a01b038516907fddf252ad1be2c89b69c2b068fc378daa952ba7f163c4a11628f55a4df523b3ef90610c61908690610fd7565b60405180910390a361048983600084610489565b60606000610c84836002611347565b610c8f90600261132f565b67ffffffffffffffff811115610cb557634e487b7160e01b600052604160045260246000fd5b6040519080825280601f01601f191660200182016040528015610cdf576020820181803683370190505b509050600360fc1b81600081518110610d0857634e487b7160e01b600052603260045260246000fd5b60200101906001600160f81b031916908160001a905350600f60fb1b81600181518110610d4557634e487b7160e01b600052603260045260246000fd5b60200101906001600160f81b031916908160001a9053506000610d69846002611347565b610d7490600161132f565b90505b6001811115610e08576f181899199a1a9b1b9c1cb0b131b232b360811b85600f1660108110610db657634e487b7160e01b600052603260045260246000fd5b1a60f81b828281518110610dda57634e487b7160e01b600052603260045260246000fd5b60200101906001600160f81b031916908160001a90535060049490941c93610e01816113a9565b9050610d77565b508315610e275760405162461bcd60e51b81526004016104cb90611013565b9392505050565b80356001600160a01b038116811461033f57600080fd5b600060208284031215610e56578081fd5b610e2782610e2e565b60008060408385031215610e71578081fd5b610e7a83610e2e565b9150610e8860208401610e2e565b90509250929050565b600080600060608486031215610ea5578081fd5b610eae84610e2e565b9250610ebc60208501610e2e565b9150604084013590509250925092565b60008060408385031215610ede578182fd5b610ee783610e2e565b946020939093013593505050565b600060208284031215610f06578081fd5b5035919050565b60008060408385031215610f1f578182fd5b82359150610e8860208401610e2e565b600060208284031215610f40578081fd5b81356001600160e01b031981168114610e27578182fd5b60007f416363657373436f6e74726f6c3a206163636f756e742000000000000000000082528351610f8f81601785016020880161137d565b7001034b99036b4b9b9b4b733903937b6329607d1b6017918401918201528351610fc081602884016020880161137d565b01602801949350505050565b901515815260200190565b90815260200190565b6000602082528251806020840152610fff81604085016020870161137d565b601f01601f19169190910160400192915050565b6020808252818101527f537472696e67733a20686578206c656e67746820696e73756666696369656e74604082015260600190565b60208082526023908201527f45524332303a207472616e7366657220746f20746865207a65726f206164647260408201526265737360e81b606082015260800190565b60208082526022908201527f45524332303a206275726e20616d6f756e7420657863656564732062616c616e604082015261636560f01b606082015260800190565b60208082526022908201527f45524332303a20617070726f766520746f20746865207a65726f206164647265604082015261737360f01b606082015260800190565b6020808252601d908201527f45524332303a20696e73756666696369656e7420616c6c6f77616e6365000000604082015260600190565b60208082526026908201527f45524332303a207472616e7366657220616d6f756e7420657863656564732062604082015265616c616e636560d01b606082015260800190565b60208082526021908201527f45524332303a206275726e2066726f6d20746865207a65726f206164647265736040820152607360f81b606082015260800190565b60208082526025908201527f45524332303a207472616e736665722066726f6d20746865207a65726f206164604082015264647265737360d81b606082015260800190565b60208082526024908201527f45524332303a20617070726f76652066726f6d20746865207a65726f206164646040820152637265737360e01b606082015260800190565b60208082526025908201527f45524332303a2064656372656173656420616c6c6f77616e63652062656c6f77604082015264207a65726f60d81b606082015260800190565b6020808252602f908201527f416363657373436f6e74726f6c3a2063616e206f6e6c792072656e6f756e636560408201526e103937b632b9903337b91039b2b63360891b606082015260800190565b6020808252601f908201527f45524332303a206d696e7420746f20746865207a65726f206164647265737300604082015260600190565b60ff91909116815260200190565b60008219821115611342576113426113fb565b500190565b6000816000190483118215151615611361576113616113fb565b500290565b600082821015611378576113786113fb565b500390565b60005b83811015611398578181015183820152602001611380565b838111156108225750506000910152565b6000816113b8576113b86113fb565b506000190190565b6002810460018216806113d457607f821691505b602082108114156113f557634e487b7160e01b600052602260045260246000fd5b50919050565b634e487b7160e01b600052601160045260246000fdfea26469706673582212200edd223263f4c6647762008379d24dcff5c8e5ee4c78c3f899767c9ea7f5d6ab64736f6c63430008000033",
  "devdoc": {
    "kind": "dev",
    "methods": {
      "allowance(address,address)": {
        "details": "See {IERC20-allowance}."
      },
      "approve(address,uint256)": {
        "details": "See {IERC20-approve}. NOTE: If `amount` is the maximum `uint256`, the allowance is not updated on `transferFrom`. This is semantically equivalent to an infinite approval. Requirements: - `spender` cannot be the zero address."
      },
      "balanceOf(address)": {
        "details": "See {IERC20-balanceOf}."
      },
      "burn(uint256)": {
        "details": "Destroys `amount` tokens from the caller. See {ERC20-_burn}."
      },
      "burnFrom(address,uint256)": {
        "details": "Destroys `amount` tokens from `account`, deducting from the caller's allowance. See {ERC20-_burn} and {ERC20-allowance}. Requirements: - the caller must have allowance for ``accounts``'s tokens of at least `amount`."
      },
      "decimals()": {
        "details": "Returns the number of decimals used to get its user representation. For example, if `decimals` equals `2`, a balance of `505` tokens should be displayed to a user as `5.05` (`505 / 10 ** 2`). Tokens usually opt for a value of 18, imitating the relationship between Ether and Wei. This is the value {ERC20} uses, unless this function is overridden; NOTE: This information is only used for _display_ purposes: it in no way affects any of the arithmetic of the contract, including {IERC20-balanceOf} and {IERC20-transfer}."
      },
      "decreaseAllowance(address,uint256)": {
        "details": "Atomically decreases the allowance granted to `spender` by the caller. This is an alternative to {approve} that can be used as a mitigation for problems described in {IERC20-approve}. Emits an {Approval} event indicating the updated allowance. Requirements: - `spender` cannot be the zero address. - `spender` must have allowance for the caller of at least `subtractedValue`."
      },
      "getRoleAdmin(bytes32)": {
        "details": "Returns the admin role that controls `role`. See {grantRole} and {revokeRole}. To change a role's admin, use {_setRoleAdmin}."
      },
      "grantRole(bytes32,address)": {
        "details": "Grants `role` to `account`. If `account` had not been already granted `role`, emits a {RoleGranted} event. Requirements: - the caller must have ``role``'s admin role."
      },
      "hasRole(bytes32,address)": {
        "details": "Returns `true` if `account` has been granted `role`."
      },
      "increaseAllowance(address,uint256)": {
        "details": "Atomically increases the allowance granted to `spender` by the caller. This is an alternative to {approve} that can be used as a mitigation for problems described in {IERC20-approve}. Emits an {Approval} event indicating the updated allowance. Requirements: - `spender` cannot be the zero address."
      },
      "name()": {
        "details": "Returns the name of the token."
      },
      "renounceRole(bytes32,address)": {
        "details": "Revokes `role` from the calling account. Roles are often managed via {grantRole} and {revokeRole}: this function's purpose is to provide a mechanism for accounts to lose their privileges if they are compromised (such as when a trusted device is misplaced). If the calling account had been revoked `role`, emits a {RoleRevoked} event. Requirements: - the caller must be `account`."
      },
      "revokeRole(bytes32,address)": {
        "details": "Revokes `role` from `account`. If `account` had been granted `role`, emits a {RoleRevoked} event. Requirements: - the caller must have ``role``'s admin role."
      },
      "supportsInterface(bytes4)": {
        "details": "See {IERC165-supportsInterface}."
      },
      "symbol()": {
        "details": "Returns the symbol of the token, usually a shorter version of the name."
      },
      "totalSupply()": {
        "details": "See {IERC20-totalSupply}."
      },
      "transfer(address,uint256)": {
        "details": "See {IERC20-transfer}. Requirements: - `to` cannot be the zero address. - the caller must have a balance of at least `amount`."
      },
      "transferFrom(address,address,uint256)": {
        "details": "See {IERC20-transferFrom}. Emits an {Approval} event indicating the updated allowance. This is not required by the EIP. See the note at the beginning of {ERC20}. NOTE: Does not update the allowance if the current allowance is the maximum `uint256`. Requirements: - `from` and `to` cannot be the zero address. - `from` must have a balance of at least `amount`. - the caller must have allowance for ``from``'s tokens of at least `amount`."
      }
    },
    "version": 1
  },
  "userdoc": {
    "kind": "user",
    "methods": {},
    "version": 1
  },
  "storageLayout": {
    "storage": [
      {
        "astId": 397,
        "contract": "contracts/BasicToken.sol:BasicToken",
        "label": "_balances",
        "offset": 0,
        "slot": "0",
        "type": "t_mapping(t_address,t_uint256)"
      },
      {
        "astId": 403,
        "contract": "contracts/BasicToken.sol:BasicToken",
        "label": "_allowances",
        "offset": 0,
        "slot": "1",
        "type": "t_mapping(t_address,t_mapping(t_address,t_uint256))"
      },
      {
        "astId": 405,
        "contract": "contracts/BasicToken.sol:BasicToken",
        "label": "_totalSupply",
        "offset": 0,
        "slot": "2",
        "type": "t_uint256"
      },
      {
        "astId": 407,
        "contract": "contracts/BasicToken.sol:BasicToken",
        "label": "_name",
        "offset": 0,
        "slot": "3",
        "type": "t_string_storage"
      },
      {
        "astId": 409,
        "contract": "contracts/BasicToken.sol:BasicToken",
        "label": "_symbol",
        "offset": 0,
        "slot": "4",
        "type": "t_string_storage"
      },
      {
        "astId": 24,
        "contract": "contracts/BasicToken.sol:BasicToken",
        "label": "_roles",
        "offset": 0,
        "slot": "5",
        "type": "t_mapping(t_bytes32,t_struct(RoleData)19_storage)"
      }
    ],
    "types": {
      "t_address": {
        "encoding": "inplace",
        "label": "address",
        "numberOfBytes": "20"
      },
      "t_bool": {
        "encoding": "inplace",
        "label": "bool",
        "numberOfBytes": "1"
      },
      "t_bytes32": {
        "encoding": "inplace",
        "label": "bytes32",
        "numberOfBytes": "32"
      },
      "t_mapping(t_address,t_bool)": {
        "encoding": "mapping",
        "key": "t_address",
        "label": "mapping(address => bool)",
        "numberOfBytes": "32",
        "value": "t_bool"
      },
      "t_mapping(t_address,t_mapping(t_address,t_uint256))": {
        "encoding": "mapping",
        "key": "t_address",
        "label": "mapping(address => mapping(address => uint256))",
        "numberOfBytes": "32",
        "value": "t_mapping(t_address,t_uint256)"
      },
      "t_mapping(t_address,t_uint256)": {
        "encoding": "mapping",
        "key": "t_address",
        "label": "mapping(address => uint256)",
        "numberOfBytes": "32",
        "value": "t_uint256"
      },
      "t_mapping(t_bytes32,t_struct(RoleData)19_storage)": {
        "encoding": "mapping",
        "key": "t_bytes32",
        "label": "mapping(bytes32 => struct AccessControl.RoleData)",
        "numberOfBytes": "32",
        "value": "t_struct(RoleData)19_storage"
      },
      "t_string_storage": {
        "encoding": "bytes",
        "label": "string",
        "numberOfBytes": "32"
      },
      "t_struct(RoleData)19_storage": {
        "encoding": "inplace",
        "label": "struct AccessControl.RoleData",
        "members": [
          {
            "astId": 16,
            "contract": "contracts/BasicToken.sol:BasicToken",
            "label": "members",
            "offset": 0,
            "slot": "0",
            "type": "t_mapping(t_address,t_bool)"
          },
          {
            "astId": 18,
            "contract": "contracts/BasicToken.sol:BasicToken",
            "label": "adminRole",
            "offset": 0,
            "slot": "1",
            "type": "t_bytes32"
          }
        ],
        "numberOfBytes": "64"
      },
      "t_uint256": {
        "encoding": "inplace",
        "label": "uint256",
        "numberOfBytes": "32"
      }
    }
  }
}